{
  "_format": "hh-sol-artifact-1",
  "contractName": "EasyBet",
  "sourceName": "contracts/EasyBet.sol",
  "abi": [
    {
      "inputs": [],
      "stateMutability": "nonpayable",
      "type": "constructor"
    },
    {
      "inputs": [
        {
          "internalType": "address",
          "name": "sender",
          "type": "address"
        },
        {
          "internalType": "uint256",
          "name": "tokenId",
          "type": "uint256"
        },
        {
          "internalType": "address",
          "name": "owner",
          "type": "address"
        }
      ],
      "name": "ERC721IncorrectOwner",
      "type": "error"
    },
    {
      "inputs": [
        {
          "internalType": "address",
          "name": "operator",
          "type": "address"
        },
        {
          "internalType": "uint256",
          "name": "tokenId",
          "type": "uint256"
        }
      ],
      "name": "ERC721InsufficientApproval",
      "type": "error"
    },
    {
      "inputs": [
        {
          "internalType": "address",
          "name": "approver",
          "type": "address"
        }
      ],
      "name": "ERC721InvalidApprover",
      "type": "error"
    },
    {
      "inputs": [
        {
          "internalType": "address",
          "name": "operator",
          "type": "address"
        }
      ],
      "name": "ERC721InvalidOperator",
      "type": "error"
    },
    {
      "inputs": [
        {
          "internalType": "address",
          "name": "owner",
          "type": "address"
        }
      ],
      "name": "ERC721InvalidOwner",
      "type": "error"
    },
    {
      "inputs": [
        {
          "internalType": "address",
          "name": "receiver",
          "type": "address"
        }
      ],
      "name": "ERC721InvalidReceiver",
      "type": "error"
    },
    {
      "inputs": [
        {
          "internalType": "address",
          "name": "sender",
          "type": "address"
        }
      ],
      "name": "ERC721InvalidSender",
      "type": "error"
    },
    {
      "inputs": [
        {
          "internalType": "uint256",
          "name": "tokenId",
          "type": "uint256"
        }
      ],
      "name": "ERC721NonexistentToken",
      "type": "error"
    },
    {
      "anonymous": false,
      "inputs": [
        {
          "indexed": true,
          "internalType": "address",
          "name": "owner",
          "type": "address"
        },
        {
          "indexed": true,
          "internalType": "address",
          "name": "approved",
          "type": "address"
        },
        {
          "indexed": true,
          "internalType": "uint256",
          "name": "tokenId",
          "type": "uint256"
        }
      ],
      "name": "Approval",
      "type": "event"
    },
    {
      "anonymous": false,
      "inputs": [
        {
          "indexed": true,
          "internalType": "address",
          "name": "owner",
          "type": "address"
        },
        {
          "indexed": true,
          "internalType": "address",
          "name": "operator",
          "type": "address"
        },
        {
          "indexed": false,
          "internalType": "bool",
          "name": "approved",
          "type": "bool"
        }
      ],
      "name": "ApprovalForAll",
      "type": "event"
    },
    {
      "anonymous": false,
      "inputs": [
        {
          "indexed": true,
          "internalType": "uint256",
          "name": "lotteryId",
          "type": "uint256"
        }
      ],
      "name": "LotteryClosed",
      "type": "event"
    },
    {
      "anonymous": false,
      "inputs": [
        {
          "indexed": true,
          "internalType": "uint256",
          "name": "lotteryId",
          "type": "uint256"
        },
        {
          "indexed": false,
          "internalType": "string",
          "name": "name",
          "type": "string"
        },
        {
          "indexed": false,
          "internalType": "uint256",
          "name": "endTime",
          "type": "uint256"
        }
      ],
      "name": "LotteryCreated",
      "type": "event"
    },
    {
      "anonymous": false,
      "inputs": [
        {
          "indexed": true,
          "internalType": "uint256",
          "name": "lotteryId",
          "type": "uint256"
        },
        {
          "indexed": false,
          "internalType": "string",
          "name": "winningChoice",
          "type": "string"
        }
      ],
      "name": "LotteryResultSet",
      "type": "event"
    },
    {
      "anonymous": false,
      "inputs": [
        {
          "indexed": true,
          "internalType": "uint256",
          "name": "tokenId",
          "type": "uint256"
        },
        {
          "indexed": true,
          "internalType": "uint256",
          "name": "lotteryId",
          "type": "uint256"
        },
        {
          "indexed": false,
          "internalType": "string",
          "name": "choice",
          "type": "string"
        },
        {
          "indexed": false,
          "internalType": "uint256",
          "name": "amount",
          "type": "uint256"
        },
        {
          "indexed": false,
          "internalType": "address",
          "name": "owner",
          "type": "address"
        }
      ],
      "name": "TicketCreated",
      "type": "event"
    },
    {
      "anonymous": false,
      "inputs": [
        {
          "indexed": true,
          "internalType": "uint256",
          "name": "tokenId",
          "type": "uint256"
        },
        {
          "indexed": true,
          "internalType": "address",
          "name": "seller",
          "type": "address"
        },
        {
          "indexed": false,
          "internalType": "uint256",
          "name": "price",
          "type": "uint256"
        }
      ],
      "name": "TicketListedForSale",
      "type": "event"
    },
    {
      "anonymous": false,
      "inputs": [
        {
          "indexed": true,
          "internalType": "uint256",
          "name": "tokenId",
          "type": "uint256"
        },
        {
          "indexed": true,
          "internalType": "address",
          "name": "seller",
          "type": "address"
        },
        {
          "indexed": true,
          "internalType": "address",
          "name": "buyer",
          "type": "address"
        },
        {
          "indexed": false,
          "internalType": "uint256",
          "name": "price",
          "type": "uint256"
        }
      ],
      "name": "TicketSold",
      "type": "event"
    },
    {
      "anonymous": false,
      "inputs": [
        {
          "indexed": true,
          "internalType": "address",
          "name": "from",
          "type": "address"
        },
        {
          "indexed": true,
          "internalType": "address",
          "name": "to",
          "type": "address"
        },
        {
          "indexed": true,
          "internalType": "uint256",
          "name": "tokenId",
          "type": "uint256"
        }
      ],
      "name": "Transfer",
      "type": "event"
    },
    {
      "inputs": [
        {
          "internalType": "address",
          "name": "to",
          "type": "address"
        },
        {
          "internalType": "uint256",
          "name": "tokenId",
          "type": "uint256"
        }
      ],
      "name": "approve",
      "outputs": [],
      "stateMutability": "nonpayable",
      "type": "function"
    },
    {
      "inputs": [
        {
          "internalType": "address",
          "name": "owner",
          "type": "address"
        }
      ],
      "name": "balanceOf",
      "outputs": [
        {
          "internalType": "uint256",
          "name": "",
          "type": "uint256"
        }
      ],
      "stateMutability": "view",
      "type": "function"
    },
    {
      "inputs": [
        {
          "internalType": "uint256",
          "name": "tokenId",
          "type": "uint256"
        }
      ],
      "name": "buySecondhandTicket",
      "outputs": [],
      "stateMutability": "nonpayable",
      "type": "function"
    },
    {
      "inputs": [
        {
          "internalType": "uint256",
          "name": "lotteryId",
          "type": "uint256"
        },
        {
          "internalType": "string",
          "name": "choice",
          "type": "string"
        },
        {
          "internalType": "uint256",
          "name": "amount",
          "type": "uint256"
        }
      ],
      "name": "buyTicket",
      "outputs": [],
      "stateMutability": "nonpayable",
      "type": "function"
    },
    {
      "inputs": [
        {
          "internalType": "uint256",
          "name": "lotteryId",
          "type": "uint256"
        },
        {
          "internalType": "string",
          "name": "rightChoice",
          "type": "string"
        }
      ],
      "name": "closeLottery",
      "outputs": [],
      "stateMutability": "nonpayable",
      "type": "function"
    },
    {
      "inputs": [
        {
          "internalType": "string",
          "name": "name",
          "type": "string"
        },
        {
          "internalType": "uint256",
          "name": "endTime",
          "type": "uint256"
        },
        {
          "internalType": "string[]",
          "name": "choices",
          "type": "string[]"
        }
      ],
      "name": "createLottery",
      "outputs": [],
      "stateMutability": "nonpayable",
      "type": "function"
    },
    {
      "inputs": [
        {
          "internalType": "uint256",
          "name": "tokenId",
          "type": "uint256"
        }
      ],
      "name": "getApproved",
      "outputs": [
        {
          "internalType": "address",
          "name": "",
          "type": "address"
        }
      ],
      "stateMutability": "view",
      "type": "function"
    },
    {
      "inputs": [],
      "name": "airdrop",
      "outputs": [],
      "stateMutability": "nonpayable",
      "type": "function"
    },
    {
      "inputs": [],
      "name": "getLotteries",
      "outputs": [
        {
          "components": [
            {
              "internalType": "string",
              "name": "name",
              "type": "string"
            },
            {
              "internalType": "uint256",
              "name": "participants",
              "type": "uint256"
            },
            {
              "internalType": "uint256",
              "name": "prizePool",
              "type": "uint256"
            },
            {
              "internalType": "uint256",
              "name": "endTime",
              "type": "uint256"
            },
            {
              "internalType": "string[]",
              "name": "choices",
              "type": "string[]"
            },
            {
              "internalType": "string",
              "name": "rightChoice",
              "type": "string"
            }
          ],
          "internalType": "struct EasyBet.Lottery[]",
          "name": "",
          "type": "tuple[]"
        }
      ],
      "stateMutability": "view",
      "type": "function"
    },
    {
      "inputs": [],
      "name": "getTickets",
      "outputs": [
        {
          "components": [
            {
              "internalType": "uint256",
              "name": "lotteryId",
              "type": "uint256"
            },
            {
              "internalType": "string",
              "name": "choice",
              "type": "string"
            },
            {
              "internalType": "uint256",
              "name": "amount",
              "type": "uint256"
            },
            {
              "internalType": "uint256",
              "name": "sellPrice",
              "type": "uint256"
            },
            {
              "internalType": "bool",
              "name": "isSelling",
              "type": "bool"
            }
          ],
          "internalType": "struct EasyBet.Ticket[]",
          "name": "",
          "type": "tuple[]"
        },
        {
          "internalType": "uint256[]",
          "name": "tokenIds",
          "type": "uint256[]"
        },
        {
          "internalType": "address[]",
          "name": "owners",
          "type": "address[]"
        }
      ],
      "stateMutability": "view",
      "type": "function"
    },
    {
      "inputs": [
        {
          "internalType": "address",
          "name": "owner",
          "type": "address"
        },
        {
          "internalType": "address",
          "name": "operator",
          "type": "address"
        }
      ],
      "name": "isApprovedForAll",
      "outputs": [
        {
          "internalType": "bool",
          "name": "",
          "type": "bool"
        }
      ],
      "stateMutability": "view",
      "type": "function"
    },
    {
      "inputs": [
        {
          "internalType": "uint256",
          "name": "",
          "type": "uint256"
        }
      ],
      "name": "lotteries",
      "outputs": [
        {
          "internalType": "string",
          "name": "name",
          "type": "string"
        },
        {
          "internalType": "uint256",
          "name": "participants",
          "type": "uint256"
        },
        {
          "internalType": "uint256",
          "name": "prizePool",
          "type": "uint256"
        },
        {
          "internalType": "uint256",
          "name": "endTime",
          "type": "uint256"
        },
        {
          "internalType": "string",
          "name": "rightChoice",
          "type": "string"
        }
      ],
      "stateMutability": "view",
      "type": "function"
    },
    {
      "inputs": [],
      "name": "manager",
      "outputs": [
        {
          "internalType": "address",
          "name": "",
          "type": "address"
        }
      ],
      "stateMutability": "view",
      "type": "function"
    },
    {
      "inputs": [],
      "name": "myERC20",
      "outputs": [
        {
          "internalType": "contract MyERC20",
          "name": "",
          "type": "address"
        }
      ],
      "stateMutability": "view",
      "type": "function"
    },
    {
      "inputs": [],
      "name": "name",
      "outputs": [
        {
          "internalType": "string",
          "name": "",
          "type": "string"
        }
      ],
      "stateMutability": "view",
      "type": "function"
    },
    {
      "inputs": [],
      "name": "nextLotteryId",
      "outputs": [
        {
          "internalType": "uint256",
          "name": "",
          "type": "uint256"
        }
      ],
      "stateMutability": "view",
      "type": "function"
    },
    {
      "inputs": [],
      "name": "nextTokenId",
      "outputs": [
        {
          "internalType": "uint256",
          "name": "",
          "type": "uint256"
        }
      ],
      "stateMutability": "view",
      "type": "function"
    },
    {
      "inputs": [
        {
          "internalType": "uint256",
          "name": "tokenId",
          "type": "uint256"
        }
      ],
      "name": "ownerOf",
      "outputs": [
        {
          "internalType": "address",
          "name": "",
          "type": "address"
        }
      ],
      "stateMutability": "view",
      "type": "function"
    },
    {
      "inputs": [
        {
          "internalType": "uint256",
          "name": "tokenId",
          "type": "uint256"
        }
      ],
      "name": "removeTicketFromSale",
      "outputs": [],
      "stateMutability": "nonpayable",
      "type": "function"
    },
    {
      "inputs": [
        {
          "internalType": "address",
          "name": "from",
          "type": "address"
        },
        {
          "internalType": "address",
          "name": "to",
          "type": "address"
        },
        {
          "internalType": "uint256",
          "name": "tokenId",
          "type": "uint256"
        }
      ],
      "name": "safeTransferFrom",
      "outputs": [],
      "stateMutability": "nonpayable",
      "type": "function"
    },
    {
      "inputs": [
        {
          "internalType": "address",
          "name": "from",
          "type": "address"
        },
        {
          "internalType": "address",
          "name": "to",
          "type": "address"
        },
        {
          "internalType": "uint256",
          "name": "tokenId",
          "type": "uint256"
        },
        {
          "internalType": "bytes",
          "name": "data",
          "type": "bytes"
        }
      ],
      "name": "safeTransferFrom",
      "outputs": [],
      "stateMutability": "nonpayable",
      "type": "function"
    },
    {
      "inputs": [
        {
          "internalType": "uint256",
          "name": "tokenId",
          "type": "uint256"
        },
        {
          "internalType": "uint256",
          "name": "price",
          "type": "uint256"
        }
      ],
      "name": "sellTicket",
      "outputs": [],
      "stateMutability": "nonpayable",
      "type": "function"
    },
    {
      "inputs": [
        {
          "internalType": "address",
          "name": "operator",
          "type": "address"
        },
        {
          "internalType": "bool",
          "name": "approved",
          "type": "bool"
        }
      ],
      "name": "setApprovalForAll",
      "outputs": [],
      "stateMutability": "nonpayable",
      "type": "function"
    },
    {
      "inputs": [
        {
          "internalType": "uint256",
          "name": "lotteryId",
          "type": "uint256"
        },
        {
          "internalType": "string",
          "name": "rightChoice",
          "type": "string"
        }
      ],
      "name": "setLotteryResult",
      "outputs": [],
      "stateMutability": "nonpayable",
      "type": "function"
    },
    {
      "inputs": [
        {
          "internalType": "bytes4",
          "name": "interfaceId",
          "type": "bytes4"
        }
      ],
      "name": "supportsInterface",
      "outputs": [
        {
          "internalType": "bool",
          "name": "",
          "type": "bool"
        }
      ],
      "stateMutability": "view",
      "type": "function"
    },
    {
      "inputs": [],
      "name": "symbol",
      "outputs": [
        {
          "internalType": "string",
          "name": "",
          "type": "string"
        }
      ],
      "stateMutability": "view",
      "type": "function"
    },
    {
      "inputs": [
        {
          "internalType": "uint256",
          "name": "",
          "type": "uint256"
        }
      ],
      "name": "tickets",
      "outputs": [
        {
          "internalType": "uint256",
          "name": "lotteryId",
          "type": "uint256"
        },
        {
          "internalType": "string",
          "name": "choice",
          "type": "string"
        },
        {
          "internalType": "uint256",
          "name": "amount",
          "type": "uint256"
        },
        {
          "internalType": "uint256",
          "name": "sellPrice",
          "type": "uint256"
        },
        {
          "internalType": "bool",
          "name": "isSelling",
          "type": "bool"
        }
      ],
      "stateMutability": "view",
      "type": "function"
    },
    {
      "inputs": [
        {
          "internalType": "uint256",
          "name": "tokenId",
          "type": "uint256"
        }
      ],
      "name": "tokenURI",
      "outputs": [
        {
          "internalType": "string",
          "name": "",
          "type": "string"
        }
      ],
      "stateMutability": "view",
      "type": "function"
    },
    {
      "inputs": [
        {
          "internalType": "address",
          "name": "from",
          "type": "address"
        },
        {
          "internalType": "address",
          "name": "to",
          "type": "address"
        },
        {
          "internalType": "uint256",
          "name": "tokenId",
          "type": "uint256"
        }
      ],
      "name": "transferFrom",
      "outputs": [],
      "stateMutability": "nonpayable",
      "type": "function"
    }
  ],
  "bytecode": "0x6080604052600160085560016009553480156200001b57600080fd5b506040518060400160405280601681526020017f45617379426574204c6f7474657279205469636b6574000000000000000000008152506040518060400160405280600481526020017f45424c54000000000000000000000000000000000000000000000000000000008152508160009081620000999190620003f4565b508060019081620000ab9190620003f4565b505050604051620000bc906200016c565b620000c7906200058c565b604051809103906000f080158015620000e4573d6000803e3d6000fd5b50600760006101000a81548173ffffffffffffffffffffffffffffffffffffffff021916908373ffffffffffffffffffffffffffffffffffffffff16021790555033600660006101000a81548173ffffffffffffffffffffffffffffffffffffffff021916908373ffffffffffffffffffffffffffffffffffffffff160217905550620005c3565b611638806200555e83390190565b600081519050919050565b7f4e487b7100000000000000000000000000000000000000000000000000000000600052604160045260246000fd5b7f4e487b7100000000000000000000000000000000000000000000000000000000600052602260045260246000fd5b60006002820490506001821680620001fc57607f821691505b602082108103620002125762000211620001b4565b5b50919050565b60008190508160005260206000209050919050565b60006020601f8301049050919050565b600082821b905092915050565b6000600883026200027c7fffffffffffffffffffffffffffffffffffffffffffffffffffffffffffffffff826200023d565b6200028886836200023d565b95508019841693508086168417925050509392505050565b6000819050919050565b6000819050919050565b6000620002d5620002cf620002c984620002a0565b620002aa565b620002a0565b9050919050565b6000819050919050565b620002f183620002b4565b620003096200030082620002dc565b8484546200024a565b825550505050565b600090565b6200032062000311565b6200032d818484620002e6565b505050565b5b8181101562000355576200034960008262000316565b60018101905062000333565b5050565b601f821115620003a4576200036e8162000218565b62000379846200022d565b8101602085101562000389578190505b620003a162000398856200022d565b83018262000332565b50505b505050565b600082821c905092915050565b6000620003c960001984600802620003a9565b1980831691505092915050565b6000620003e48383620003b6565b9150826002028217905092915050565b620003ff826200017a565b67ffffffffffffffff8111156200041b576200041a62000185565b5b620004278254620001e3565b6200043482828562000359565b600060209050601f8311600181146200046c576000841562000457578287015190505b620004638582620003d6565b865550620004d3565b601f1984166200047c8662000218565b60005b82811015620004a6578489015182556001820191506020850194506020810190506200047f565b86831015620004c65784890151620004c2601f891682620003b6565b8355505b6001600288020188555050505b505050505050565b600082825260208201905092915050565b7f5a4a55546f6b656e000000000000000000000000000000000000000000000000600082015250565b600062000524600883620004db565b91506200053182620004ec565b602082019050919050565b7f5a4a550000000000000000000000000000000000000000000000000000000000600082015250565b600062000574600383620004db565b915062000581826200053c565b602082019050919050565b60006040820190508181036000830152620005a78162000515565b90508181036020830152620005bc8162000565565b9050919050565b614f8b80620005d36000396000f3fe608060405234801561001057600080fd5b50600436106101c45760003560e01c80636d3739c4116100f9578063a22cb46511610097578063b88d4fde11610071578063b88d4fde146104f8578063bcc82ec414610514578063c87b56dd14610532578063e985e9c514610562576101c4565b8063a22cb465146104a4578063a33929c6146104c0578063b2529b32146104dc576101c4565b80637d858128116100d35780637d858128146104305780638009df681461044c57806395d89b411461046a5780639d8ca53114610488576101c4565b80636d3739c4146103c457806370a08231146103e257806375794a3c14610412576101c4565b80632e019e4b116101665780634ed02622116101405780634ed026221461032557806350b44712146103445780636352211e146103785780636a37ed9f146103a8576101c4565b80632e019e4b146102cf57806342842e0e146102eb578063481c6a7514610307576101c4565b8063095ea7b3116101a2578063095ea7b3146102475780631398e0761461026357806323b872dd146102975780632a6c4c14146102b3576101c4565b806301ffc9a7146101c957806306fdde03146101f9578063081812fc14610217575b600080fd5b6101e360048036038101906101de919061327b565b610592565b6040516101f091906132c3565b60405180910390f35b610201610674565b60405161020e919061336e565b60405180910390f35b610231600480360381019061022c91906133c6565b610706565b60405161023e9190613434565b60405180910390f35b610261600480360381019061025c919061347b565b610722565b005b61027d600480360381019061027891906133c6565b610738565b60405161028e9594939291906134ca565b60405180910390f35b6102b160048036038101906102ac919061352b565b61087e565b005b6102cd60048036038101906102c8919061357e565b610980565b005b6102e960048036038101906102e491906136f3565b610b3a565b005b6103056004803603810190610300919061352b565b610d82565b005b61030f610da2565b60405161031c9190613434565b60405180910390f35b61032d610dc8565b60405161033b9291906139c0565b60405180910390f35b61035e600480360381019061035991906133c6565b611032565b60405161036f9594939291906139f7565b60405180910390f35b610392600480360381019061038d91906133c6565b6110fd565b60405161039f9190613434565b60405180910390f35b6103c260048036038101906103bd9190613b37565b61110f565b005b6103cc611346565b6040516103d99190613c21565b60405180910390f35b6103fc60048036038101906103f79190613c3c565b61136c565b6040516104099190613c69565b60405180910390f35b61041a611426565b6040516104279190613c69565b60405180910390f35b61044a60048036038101906104459190613c84565b61142c565b005b610454611575565b6040516104619190613c69565b60405180910390f35b61047261157b565b60405161047f919061336e565b60405180910390f35b6104a2600480360381019061049d91906133c6565b61160d565b005b6104be60048036038101906104b99190613d0c565b6119fa565b005b6104da60048036038101906104d591906133c6565b611a10565b005b6104f660048036038101906104f191906133c6565b611cb3565b005b610512600480360381019061050d9190613ded565b611dda565b005b61051c611df7565b604051610529919061408b565b60405180910390f35b61054c600480360381019061054791906133c6565b6120e9565b604051610559919061336e565b60405180910390f35b61057c600480360381019061057791906140ad565b612152565b60405161058991906132c3565b60405180910390f35b60007f80ac58cd000000000000000000000000000000000000000000000000000000007bffffffffffffffffffffffffffffffffffffffffffffffffffffffff1916827bffffffffffffffffffffffffffffffffffffffffffffffffffffffff1916148061065d57507f5b5e139f000000000000000000000000000000000000000000000000000000007bffffffffffffffffffffffffffffffffffffffffffffffffffffffff1916827bffffffffffffffffffffffffffffffffffffffffffffffffffffffff1916145b8061066d575061066c826121e6565b5b9050919050565b6060600080546106839061411c565b80601f01602080910402602001604051908101604052809291908181526020018280546106af9061411c565b80156106fc5780601f106106d1576101008083540402835291602001916106fc565b820191906000526020600020905b8154815290600101906020018083116106df57829003601f168201915b5050505050905090565b600061071182612250565b5061071b826122d8565b9050919050565b610734828261072f612315565b61231d565b5050565b600a60205280600052604060002060009150905080600001805461075b9061411c565b80601f01602080910402602001604051908101604052809291908181526020018280546107879061411c565b80156107d45780601f106107a9576101008083540402835291602001916107d4565b820191906000526020600020905b8154815290600101906020018083116107b757829003601f168201915b5050505050908060010154908060020154908060030154908060050180546107fb9061411c565b80601f01602080910402602001604051908101604052809291908181526020018280546108279061411c565b80156108745780601f1061084957610100808354040283529160200191610874565b820191906000526020600020905b81548152906001019060200180831161085757829003601f168201915b5050505050905085565b600073ffffffffffffffffffffffffffffffffffffffff168273ffffffffffffffffffffffffffffffffffffffff16036108f05760006040517f64a0ae920000000000000000000000000000000000000000000000000000000081526004016108e79190613434565b60405180910390fd5b600061090483836108ff612315565b61232f565b90508373ffffffffffffffffffffffffffffffffffffffff168173ffffffffffffffffffffffffffffffffffffffff161461097a578382826040517f64283d7b0000000000000000000000000000000000000000000000000000000081526004016109719392919061414d565b60405180910390fd5b50505050565b3373ffffffffffffffffffffffffffffffffffffffff166109a0836110fd565b73ffffffffffffffffffffffffffffffffffffffff16146109f6576040517f08c379a00000000000000000000000000000000000000000000000000000000081526004016109ed906141d0565b60405180910390fd5b600b600083815260200190815260200160002060040160009054906101000a900460ff1615610a5a576040517f08c379a0000000000000000000000000000000000000000000000000000000008152600401610a5190614262565b60405180910390fd5b60008111610a9d576040517f08c379a0000000000000000000000000000000000000000000000000000000008152600401610a94906142ce565b60405180910390fd5b6001600b600084815260200190815260200160002060040160006101000a81548160ff02191690831515021790555080600b6000848152602001908152602001600020600301819055503373ffffffffffffffffffffffffffffffffffffffff16827f84b74cca56805d121094a1469a9f2546fe85422675df1b6ebfeb461d7eb9e97f83604051610b2e9190613c69565b60405180910390a35050565b60008111610b7d576040517f08c379a0000000000000000000000000000000000000000000000000000000008152600401610b749061433a565b60405180910390fd5b600760009054906101000a900473ffffffffffffffffffffffffffffffffffffffff1673ffffffffffffffffffffffffffffffffffffffff166323b872dd3330846040518463ffffffff1660e01b8152600401610bdc9392919061435a565b6020604051808303816000875af1158015610bfb573d6000803e3d6000fd5b505050506040513d601f19601f82011682018060405250810190610c1f91906143a6565b610c5e576040517f08c379a0000000000000000000000000000000000000000000000000000000008152600401610c559061441f565b60405180910390fd5b600060086000815480929190610c739061446e565b9190505590506000600b6000838152602001908152602001600020905084816000018190555083816001019081610caa9190614658565b508281600201819055506000816003018190555060008160040160006101000a81548160ff021916908315150217905550600a60008681526020019081526020016000206001016000815480929190610d029061446e565b919050555082600a60008781526020019081526020016000206002016000828254610d2d919061472a565b92505081905550610d3e3383612549565b84827f38adbd2c56e1ff765a25119eec2b4d0269d600aaffc1cfa971a3766563ef6178868633604051610d739392919061475e565b60405180910390a35050505050565b610d9d83838360405180602001604052806000815250611dda565b505050565b600660009054906101000a900473ffffffffffffffffffffffffffffffffffffffff1681565b60608060006001600854610ddc919061479c565b67ffffffffffffffff811115610df557610df46135c8565b5b604051908082528060200260200182016040528015610e2e57816020015b610e1b6130ce565b815260200190600190039081610e135790505b50905060006001600854610e42919061479c565b67ffffffffffffffff811115610e5b57610e5a6135c8565b5b604051908082528060200260200182016040528015610e895781602001602082028036833780820191505090505b5090506000600190505b60085481101561102557600b60008281526020019081526020016000206040518060a001604052908160008201548152602001600182018054610ed59061411c565b80601f0160208091040260200160405190810160405280929190818152602001828054610f019061411c565b8015610f4e5780601f10610f2357610100808354040283529160200191610f4e565b820191906000526020600020905b815481529060010190602001808311610f3157829003601f168201915b5050505050815260200160028201548152602001600382015481526020016004820160009054906101000a900460ff16151515158152505083600183610f94919061479c565b81518110610fa557610fa46147d0565b5b6020026020010181905250610fb9816110fd565b82600183610fc7919061479c565b81518110610fd857610fd76147d0565b5b602002602001019073ffffffffffffffffffffffffffffffffffffffff16908173ffffffffffffffffffffffffffffffffffffffff1681525050808061101d9061446e565b915050610e93565b5081819350935050509091565b600b60205280600052604060002060009150905080600001549080600101805461105b9061411c565b80601f01602080910402602001604051908101604052809291908181526020018280546110879061411c565b80156110d45780601f106110a9576101008083540402835291602001916110d4565b820191906000526020600020905b8154815290600101906020018083116110b757829003601f168201915b5050505050908060020154908060030154908060040160009054906101000a900460ff16905085565b600061110882612250565b9050919050565b600660009054906101000a900473ffffffffffffffffffffffffffffffffffffffff1673ffffffffffffffffffffffffffffffffffffffff163373ffffffffffffffffffffffffffffffffffffffff161461119f576040517f08c379a00000000000000000000000000000000000000000000000000000000081526004016111969061484b565b60405180910390fd5b4282116111e1576040517f08c379a00000000000000000000000000000000000000000000000000000000081526004016111d8906148b7565b60405180910390fd5b600281511015611226576040517f08c379a000000000000000000000000000000000000000000000000000000000815260040161121d90614923565b60405180910390fd5b600083511161126a576040517f08c379a00000000000000000000000000000000000000000000000000000000081526004016112619061498f565b60405180910390fd5b60006009600081548092919061127f9061446e565b9190505590506000600a60008381526020019081526020016000209050848160000190816112ad9190614658565b508381600301819055506000816001018190555060008160020181905550828160040190805190602001906112e39291906130ff565b50604051806020016040528060008152508160050190816113049190614658565b50817f4c3d66f791206463e78ea7b39d0c6aa702039d33a8e047d32e353fc0d592428e86866040516113379291906149af565b60405180910390a25050505050565b600760009054906101000a900473ffffffffffffffffffffffffffffffffffffffff1681565b60008073ffffffffffffffffffffffffffffffffffffffff168273ffffffffffffffffffffffffffffffffffffffff16036113df5760006040517f89c62b640000000000000000000000000000000000000000000000000000000081526004016113d69190613434565b60405180910390fd5b600360008373ffffffffffffffffffffffffffffffffffffffff1673ffffffffffffffffffffffffffffffffffffffff168152602001908152602001600020549050919050565b60085481565b600660009054906101000a900473ffffffffffffffffffffffffffffffffffffffff1673ffffffffffffffffffffffffffffffffffffffff163373ffffffffffffffffffffffffffffffffffffffff16146114bc576040517f08c379a00000000000000000000000000000000000000000000000000000000081526004016114b39061484b565b60405180910390fd5b600a600083815260200190815260200160002060030154421015611515576040517f08c379a000000000000000000000000000000000000000000000000000000000815260040161150c90614a2b565b60405180910390fd5b80600a600084815260200190815260200160002060050190816115389190614658565b50817f2c9b71a4c4a4a6e75d5803f1396d9b5685068f596a963b3c6392d3b5934f3e4382604051611569919061336e565b60405180910390a25050565b60095481565b60606001805461158a9061411c565b80601f01602080910402602001604051908101604052809291908181526020018280546115b69061411c565b80156116035780601f106115d857610100808354040283529160200191611603565b820191906000526020600020905b8154815290600101906020018083116115e657829003601f168201915b5050505050905090565b600660009054906101000a900473ffffffffffffffffffffffffffffffffffffffff1673ffffffffffffffffffffffffffffffffffffffff163373ffffffffffffffffffffffffffffffffffffffff161461169d576040517f08c379a00000000000000000000000000000000000000000000000000000000081526004016116949061484b565b60405180910390fd5b600a6000828152602001908152602001600020600301544210156116f6576040517f08c379a00000000000000000000000000000000000000000000000000000000081526004016116ed90614a2b565b60405180910390fd5b6000600a600083815260200190815260200160002090506000816001015467ffffffffffffffff81111561172d5761172c6135c8565b5b60405190808252806020026020018201604052801561175b5781602001602082028036833780820191505090505b5090506000806000600190505b6008548110156118435785600b6000838152602001908152602001600020600001541480156117d85750846005016040516117a39190614aee565b6040518091039020600b60008381526020019081526020016000206001016040516117ce9190614aee565b6040518091039020145b1561183057808484815181106117f1576117f06147d0565b5b602002602001018181525050600b6000828152602001908152602001600020600201548261181f919061472a565b9150828061182c9061446e565b9350505b808061183b9061446e565b915050611768565b506000821180156118545750600081115b156119c65760005b828110156119c4576000848281518110611879576118786147d0565b5b60200260200101519050600061188e826110fd565b90506000848860020154600b6000868152602001908152602001600020600201546118b99190614b05565b6118c39190614b76565b905060008111156119ae57600760009054906101000a900473ffffffffffffffffffffffffffffffffffffffff1673ffffffffffffffffffffffffffffffffffffffff1663a9059cbb83836040518363ffffffff1660e01b815260040161192b929190614ba7565b6020604051808303816000875af115801561194a573d6000803e3d6000fd5b505050506040513d601f19601f8201168201806040525081019061196e91906143a6565b6119ad576040517f08c379a00000000000000000000000000000000000000000000000000000000081526004016119a490614c1c565b60405180910390fd5b5b50505080806119bc9061446e565b91505061185c565b505b847f78e6171ce785e294b3cf08bb3569d44c10e53e7c280e72f333dd11553422493b60405160405180910390a25050505050565b611a0c611a05612315565b8383612567565b5050565b600b600082815260200190815260200160002060040160009054906101000a900460ff16611a73576040517f08c379a0000000000000000000000000000000000000000000000000000000008152600401611a6a90614c88565b60405180910390fd5b3373ffffffffffffffffffffffffffffffffffffffff16611a93826110fd565b73ffffffffffffffffffffffffffffffffffffffff1603611ae9576040517f08c379a0000000000000000000000000000000000000000000000000000000008152600401611ae090614cf4565b60405180910390fd5b6000611af4826110fd565b90506000600b6000848152602001908152602001600020600301549050600760009054906101000a900473ffffffffffffffffffffffffffffffffffffffff1673ffffffffffffffffffffffffffffffffffffffff166323b872dd3384846040518463ffffffff1660e01b8152600401611b709392919061435a565b6020604051808303816000875af1158015611b8f573d6000803e3d6000fd5b505050506040513d601f19601f82011682018060405250810190611bb391906143a6565b611bf2576040517f08c379a0000000000000000000000000000000000000000000000000000000008152600401611be990614d60565b60405180910390fd5b6000600b6000858152602001908152602001600020600301819055506000600b600085815260200190815260200160002060040160006101000a81548160ff021916908315150217905550611c488233856126d6565b3373ffffffffffffffffffffffffffffffffffffffff168273ffffffffffffffffffffffffffffffffffffffff16847f2bbc64d6afd28a753f6c5e4aaa894f1d684c44a0e080167eae104ac8505cfebd84604051611ca69190613c69565b60405180910390a4505050565b3373ffffffffffffffffffffffffffffffffffffffff16611cd3826110fd565b73ffffffffffffffffffffffffffffffffffffffff1614611d29576040517f08c379a0000000000000000000000000000000000000000000000000000000008152600401611d2090614df2565b60405180910390fd5b600b600082815260200190815260200160002060040160009054906101000a900460ff16611d8c576040517f08c379a0000000000000000000000000000000000000000000000000000000008152600401611d8390614c88565b60405180910390fd5b6000600b600083815260200190815260200160002060040160006101000a81548160ff0219169083151502179055506000600b60008381526020019081526020016000206003018190555050565b611de584848461087e565b611df184848484612843565b50505050565b606060006001600954611e0a919061479c565b67ffffffffffffffff811115611e2357611e226135c8565b5b604051908082528060200260200182016040528015611e5c57816020015b611e49613158565b815260200190600190039081611e415790505b50905060005b81518110156120e157600a6000600183611e7c919061472a565b81526020019081526020016000206040518060c0016040529081600082018054611ea59061411c565b80601f0160208091040260200160405190810160405280929190818152602001828054611ed19061411c565b8015611f1e5780601f10611ef357610100808354040283529160200191611f1e565b820191906000526020600020905b815481529060010190602001808311611f0157829003601f168201915b5050505050815260200160018201548152602001600282015481526020016003820154815260200160048201805480602002602001604051908101604052809291908181526020016000905b82821015612016578382906000526020600020018054611f899061411c565b80601f0160208091040260200160405190810160405280929190818152602001828054611fb59061411c565b80156120025780601f10611fd757610100808354040283529160200191612002565b820191906000526020600020905b815481529060010190602001808311611fe557829003601f168201915b505050505081526020019060010190611f6a565b50505050815260200160058201805461202e9061411c565b80601f016020809104026020016040519081016040528092919081815260200182805461205a9061411c565b80156120a75780601f1061207c576101008083540402835291602001916120a7565b820191906000526020600020905b81548152906001019060200180831161208a57829003601f168201915b5050505050815250508282815181106120c3576120c26147d0565b5b602002602001018190525080806120d99061446e565b915050611e62565b508091505090565b60606120f482612250565b5060006120ff6129fa565b9050600081511161211f576040518060200160405280600081525061214a565b8061212984612a11565b60405160200161213a929190614e4e565b6040516020818303038152906040525b915050919050565b6000600560008473ffffffffffffffffffffffffffffffffffffffff1673ffffffffffffffffffffffffffffffffffffffff16815260200190815260200160002060008373ffffffffffffffffffffffffffffffffffffffff1673ffffffffffffffffffffffffffffffffffffffff16815260200190815260200160002060009054906101000a900460ff16905092915050565b60007f01ffc9a7000000000000000000000000000000000000000000000000000000007bffffffffffffffffffffffffffffffffffffffffffffffffffffffff1916827bffffffffffffffffffffffffffffffffffffffffffffffffffffffff1916149050919050565b60008061225c83612adf565b9050600073ffffffffffffffffffffffffffffffffffffffff168173ffffffffffffffffffffffffffffffffffffffff16036122cf57826040517f7e2732890000000000000000000000000000000000000000000000000000000081526004016122c69190613c69565b60405180910390fd5b80915050919050565b60006004600083815260200190815260200160002060009054906101000a900473ffffffffffffffffffffffffffffffffffffffff169050919050565b600033905090565b61232a8383836001612b1c565b505050565b60008061233b84612adf565b9050600073ffffffffffffffffffffffffffffffffffffffff168373ffffffffffffffffffffffffffffffffffffffff161461237d5761237c818486612ce1565b5b600073ffffffffffffffffffffffffffffffffffffffff168173ffffffffffffffffffffffffffffffffffffffff161461240e576123bf600085600080612b1c565b6001600360008373ffffffffffffffffffffffffffffffffffffffff1673ffffffffffffffffffffffffffffffffffffffff168152602001908152602001600020600082825403925050819055505b600073ffffffffffffffffffffffffffffffffffffffff168573ffffffffffffffffffffffffffffffffffffffff1614612491576001600360008773ffffffffffffffffffffffffffffffffffffffff1673ffffffffffffffffffffffffffffffffffffffff168152602001908152602001600020600082825401925050819055505b846002600086815260200190815260200160002060006101000a81548173ffffffffffffffffffffffffffffffffffffffff021916908373ffffffffffffffffffffffffffffffffffffffff160217905550838573ffffffffffffffffffffffffffffffffffffffff168273ffffffffffffffffffffffffffffffffffffffff167fddf252ad1be2c89b69c2b068fc378daa952ba7f163c4a11628f55a4df523b3ef60405160405180910390a4809150509392505050565b612563828260405180602001604052806000815250612da5565b5050565b600073ffffffffffffffffffffffffffffffffffffffff168273ffffffffffffffffffffffffffffffffffffffff16036125d857816040517f5b08ba180000000000000000000000000000000000000000000000000000000081526004016125cf9190613434565b60405180910390fd5b80600560008573ffffffffffffffffffffffffffffffffffffffff1673ffffffffffffffffffffffffffffffffffffffff16815260200190815260200160002060008473ffffffffffffffffffffffffffffffffffffffff1673ffffffffffffffffffffffffffffffffffffffff16815260200190815260200160002060006101000a81548160ff0219169083151502179055508173ffffffffffffffffffffffffffffffffffffffff168373ffffffffffffffffffffffffffffffffffffffff167f17307eab39ab6107e8899845ad3d59bd9653f200f220920489ca2b5937696c31836040516126c991906132c3565b60405180910390a3505050565b600073ffffffffffffffffffffffffffffffffffffffff168273ffffffffffffffffffffffffffffffffffffffff16036127485760006040517f64a0ae9200000000000000000000000000000000000000000000000000000000815260040161273f9190613434565b60405180910390fd5b60006127568383600061232f565b9050600073ffffffffffffffffffffffffffffffffffffffff168173ffffffffffffffffffffffffffffffffffffffff16036127c957816040517f7e2732890000000000000000000000000000000000000000000000000000000081526004016127c09190613c69565b60405180910390fd5b8373ffffffffffffffffffffffffffffffffffffffff168173ffffffffffffffffffffffffffffffffffffffff161461283d578382826040517f64283d7b0000000000000000000000000000000000000000000000000000000081526004016128349392919061414d565b60405180910390fd5b50505050565b60008373ffffffffffffffffffffffffffffffffffffffff163b11156129f4578273ffffffffffffffffffffffffffffffffffffffff1663150b7a02612887612315565b8685856040518563ffffffff1660e01b81526004016128a99493929190614ec7565b6020604051808303816000875af19250505080156128e557506040513d601f19601f820116820180604052508101906128e29190614f28565b60015b612969573d8060008114612915576040519150601f19603f3d011682016040523d82523d6000602084013e61291a565b606091505b50600081510361296157836040517f64a0ae920000000000000000000000000000000000000000000000000000000081526004016129589190613434565b60405180910390fd5b805181602001fd5b63150b7a0260e01b7bffffffffffffffffffffffffffffffffffffffffffffffffffffffff1916817bffffffffffffffffffffffffffffffffffffffffffffffffffffffff1916146129f257836040517f64a0ae920000000000000000000000000000000000000000000000000000000081526004016129e99190613434565b60405180910390fd5b505b50505050565b606060405180602001604052806000815250905090565b606060006001612a2084612dc1565b01905060008167ffffffffffffffff811115612a3f57612a3e6135c8565b5b6040519080825280601f01601f191660200182016040528015612a715781602001600182028036833780820191505090505b509050600082602001820190505b600115612ad4578080600190039150507f3031323334353637383961626364656600000000000000000000000000000000600a86061a8153600a8581612ac857612ac7614b47565b5b04945060008503612a7f575b819350505050919050565b60006002600083815260200190815260200160002060009054906101000a900473ffffffffffffffffffffffffffffffffffffffff169050919050565b8080612b555750600073ffffffffffffffffffffffffffffffffffffffff168273ffffffffffffffffffffffffffffffffffffffff1614155b15612c89576000612b6584612250565b9050600073ffffffffffffffffffffffffffffffffffffffff168373ffffffffffffffffffffffffffffffffffffffff1614158015612bd057508273ffffffffffffffffffffffffffffffffffffffff168173ffffffffffffffffffffffffffffffffffffffff1614155b8015612be35750612be18184612152565b155b15612c2557826040517fa9fbf51f000000000000000000000000000000000000000000000000000000008152600401612c1c9190613434565b60405180910390fd5b8115612c8757838573ffffffffffffffffffffffffffffffffffffffff168273ffffffffffffffffffffffffffffffffffffffff167f8c5be1e5ebec7d5bd14f71427d1e84f3dd0314c0f7b2291e5b200ac8c7c3b92560405160405180910390a45b505b836004600085815260200190815260200160002060006101000a81548173ffffffffffffffffffffffffffffffffffffffff021916908373ffffffffffffffffffffffffffffffffffffffff16021790555050505050565b612cec838383612f14565b612da057600073ffffffffffffffffffffffffffffffffffffffff168373ffffffffffffffffffffffffffffffffffffffff1603612d6157806040517f7e273289000000000000000000000000000000000000000000000000000000008152600401612d589190613c69565b60405180910390fd5b81816040517f177e802f000000000000000000000000000000000000000000000000000000008152600401612d97929190614ba7565b60405180910390fd5b505050565b612daf8383612fd5565b612dbc6000848484612843565b505050565b600080600090507a184f03e93ff9f4daa797ed6e38ed64bf6a1f0100000000000000008310612e1f577a184f03e93ff9f4daa797ed6e38ed64bf6a1f0100000000000000008381612e1557612e14614b47565b5b0492506040810190505b6d04ee2d6d415b85acef81000000008310612e5c576d04ee2d6d415b85acef81000000008381612e5257612e51614b47565b5b0492506020810190505b662386f26fc100008310612e8b57662386f26fc100008381612e8157612e80614b47565b5b0492506010810190505b6305f5e1008310612eb4576305f5e1008381612eaa57612ea9614b47565b5b0492506008810190505b6127108310612ed9576127108381612ecf57612ece614b47565b5b0492506004810190505b60648310612efc5760648381612ef257612ef1614b47565b5b0492506002810190505b600a8310612f0b576001810190505b80915050919050565b60008073ffffffffffffffffffffffffffffffffffffffff168373ffffffffffffffffffffffffffffffffffffffff1614158015612fcc57508273ffffffffffffffffffffffffffffffffffffffff168473ffffffffffffffffffffffffffffffffffffffff161480612f8d5750612f8c8484612152565b5b80612fcb57508273ffffffffffffffffffffffffffffffffffffffff16612fb3836122d8565b73ffffffffffffffffffffffffffffffffffffffff16145b5b90509392505050565b600073ffffffffffffffffffffffffffffffffffffffff168273ffffffffffffffffffffffffffffffffffffffff16036130475760006040517f64a0ae9200000000000000000000000000000000000000000000000000000000815260040161303e9190613434565b60405180910390fd5b60006130558383600061232f565b9050600073ffffffffffffffffffffffffffffffffffffffff168173ffffffffffffffffffffffffffffffffffffffff16146130c95760006040517f73c6ac6e0000000000000000000000000000000000000000000000000000000081526004016130c09190613434565b60405180910390fd5b505050565b6040518060a00160405280600081526020016060815260200160008152602001600081526020016000151581525090565b828054828255906000526020600020908101928215613147579160200282015b828111156131465782518290816131369190614658565b509160200191906001019061311f565b5b509050613154919061318e565b5090565b6040518060c001604052806060815260200160008152602001600081526020016000815260200160608152602001606081525090565b5b808211156131ae57600081816131a591906131b2565b5060010161318f565b5090565b5080546131be9061411c565b6000825580601f106131d057506131ef565b601f0160209004906000526020600020908101906131ee91906131f2565b5b50565b5b8082111561320b5760008160009055506001016131f3565b5090565b6000604051905090565b600080fd5b600080fd5b60007fffffffff0000000000000000000000000000000000000000000000000000000082169050919050565b61325881613223565b811461326357600080fd5b50565b6000813590506132758161324f565b92915050565b60006020828403121561329157613290613219565b5b600061329f84828501613266565b91505092915050565b60008115159050919050565b6132bd816132a8565b82525050565b60006020820190506132d860008301846132b4565b92915050565b600081519050919050565b600082825260208201905092915050565b60005b838110156133185780820151818401526020810190506132fd565b60008484015250505050565b6000601f19601f8301169050919050565b6000613340826132de565b61334a81856132e9565b935061335a8185602086016132fa565b61336381613324565b840191505092915050565b600060208201905081810360008301526133888184613335565b905092915050565b6000819050919050565b6133a381613390565b81146133ae57600080fd5b50565b6000813590506133c08161339a565b92915050565b6000602082840312156133dc576133db613219565b5b60006133ea848285016133b1565b91505092915050565b600073ffffffffffffffffffffffffffffffffffffffff82169050919050565b600061341e826133f3565b9050919050565b61342e81613413565b82525050565b60006020820190506134496000830184613425565b92915050565b61345881613413565b811461346357600080fd5b50565b6000813590506134758161344f565b92915050565b6000806040838503121561349257613491613219565b5b60006134a085828601613466565b92505060206134b1858286016133b1565b9150509250929050565b6134c481613390565b82525050565b600060a08201905081810360008301526134e48188613335565b90506134f360208301876134bb565b61350060408301866134bb565b61350d60608301856134bb565b818103608083015261351f8184613335565b90509695505050505050565b60008060006060848603121561354457613543613219565b5b600061355286828701613466565b935050602061356386828701613466565b9250506040613574868287016133b1565b9150509250925092565b6000806040838503121561359557613594613219565b5b60006135a3858286016133b1565b92505060206135b4858286016133b1565b9150509250929050565b600080fd5b600080fd5b7f4e487b7100000000000000000000000000000000000000000000000000000000600052604160045260246000fd5b61360082613324565b810181811067ffffffffffffffff8211171561361f5761361e6135c8565b5b80604052505050565b600061363261320f565b905061363e82826135f7565b919050565b600067ffffffffffffffff82111561365e5761365d6135c8565b5b61366782613324565b9050602081019050919050565b82818337600083830152505050565b600061369661369184613643565b613628565b9050828152602081018484840111156136b2576136b16135c3565b5b6136bd848285613674565b509392505050565b600082601f8301126136da576136d96135be565b5b81356136ea848260208601613683565b91505092915050565b60008060006060848603121561370c5761370b613219565b5b600061371a868287016133b1565b935050602084013567ffffffffffffffff81111561373b5761373a61321e565b5b613747868287016136c5565b9250506040613758868287016133b1565b9150509250925092565b600081519050919050565b600082825260208201905092915050565b6000819050602082019050919050565b61379781613390565b82525050565b600082825260208201905092915050565b60006137b9826132de565b6137c3818561379d565b93506137d38185602086016132fa565b6137dc81613324565b840191505092915050565b6137f0816132a8565b82525050565b600060a08301600083015161380e600086018261378e565b506020830151848203602086015261382682826137ae565b915050604083015161383b604086018261378e565b50606083015161384e606086018261378e565b50608083015161386160808601826137e7565b508091505092915050565b600061387883836137f6565b905092915050565b6000602082019050919050565b600061389882613762565b6138a2818561376d565b9350836020820285016138b48561377e565b8060005b858110156138f057848403895281516138d1858261386c565b94506138dc83613880565b925060208a019950506001810190506138b8565b50829750879550505050505092915050565b600081519050919050565b600082825260208201905092915050565b6000819050602082019050919050565b61393781613413565b82525050565b6000613949838361392e565b60208301905092915050565b6000602082019050919050565b600061396d82613902565b613977818561390d565b93506139828361391e565b8060005b838110156139b357815161399a888261393d565b97506139a583613955565b925050600181019050613986565b5085935050505092915050565b600060408201905081810360008301526139da818561388d565b905081810360208301526139ee8184613962565b90509392505050565b600060a082019050613a0c60008301886134bb565b8181036020830152613a1e8187613335565b9050613a2d60408301866134bb565b613a3a60608301856134bb565b613a4760808301846132b4565b9695505050505050565b600067ffffffffffffffff821115613a6c57613a6b6135c8565b5b602082029050602081019050919050565b600080fd5b6000613a95613a9084613a51565b613628565b90508083825260208201905060208402830185811115613ab857613ab7613a7d565b5b835b81811015613aff57803567ffffffffffffffff811115613add57613adc6135be565b5b808601613aea89826136c5565b85526020850194505050602081019050613aba565b5050509392505050565b600082601f830112613b1e57613b1d6135be565b5b8135613b2e848260208601613a82565b91505092915050565b600080600060608486031215613b5057613b4f613219565b5b600084013567ffffffffffffffff811115613b6e57613b6d61321e565b5b613b7a868287016136c5565b9350506020613b8b868287016133b1565b925050604084013567ffffffffffffffff811115613bac57613bab61321e565b5b613bb886828701613b09565b9150509250925092565b6000819050919050565b6000613be7613be2613bdd846133f3565b613bc2565b6133f3565b9050919050565b6000613bf982613bcc565b9050919050565b6000613c0b82613bee565b9050919050565b613c1b81613c00565b82525050565b6000602082019050613c366000830184613c12565b92915050565b600060208284031215613c5257613c51613219565b5b6000613c6084828501613466565b91505092915050565b6000602082019050613c7e60008301846134bb565b92915050565b60008060408385031215613c9b57613c9a613219565b5b6000613ca9858286016133b1565b925050602083013567ffffffffffffffff811115613cca57613cc961321e565b5b613cd6858286016136c5565b9150509250929050565b613ce9816132a8565b8114613cf457600080fd5b50565b600081359050613d0681613ce0565b92915050565b60008060408385031215613d2357613d22613219565b5b6000613d3185828601613466565b9250506020613d4285828601613cf7565b9150509250929050565b600067ffffffffffffffff821115613d6757613d666135c8565b5b613d7082613324565b9050602081019050919050565b6000613d90613d8b84613d4c565b613628565b905082815260208101848484011115613dac57613dab6135c3565b5b613db7848285613674565b509392505050565b600082601f830112613dd457613dd36135be565b5b8135613de4848260208601613d7d565b91505092915050565b60008060008060808587031215613e0757613e06613219565b5b6000613e1587828801613466565b9450506020613e2687828801613466565b9350506040613e37878288016133b1565b925050606085013567ffffffffffffffff811115613e5857613e5761321e565b5b613e6487828801613dbf565b91505092959194509250565b600081519050919050565b600082825260208201905092915050565b6000819050602082019050919050565b600081519050919050565b600082825260208201905092915050565b6000819050602082019050919050565b6000613ed483836137ae565b905092915050565b6000602082019050919050565b6000613ef482613e9c565b613efe8185613ea7565b935083602082028501613f1085613eb8565b8060005b85811015613f4c5784840389528151613f2d8582613ec8565b9450613f3883613edc565b925060208a01995050600181019050613f14565b50829750879550505050505092915050565b600060c0830160008301518482036000860152613f7b82826137ae565b9150506020830151613f90602086018261378e565b506040830151613fa3604086018261378e565b506060830151613fb6606086018261378e565b5060808301518482036080860152613fce8282613ee9565b91505060a083015184820360a0860152613fe882826137ae565b9150508091505092915050565b60006140018383613f5e565b905092915050565b6000602082019050919050565b600061402182613e70565b61402b8185613e7b565b93508360208202850161403d85613e8c565b8060005b85811015614079578484038952815161405a8582613ff5565b945061406583614009565b925060208a01995050600181019050614041565b50829750879550505050505092915050565b600060208201905081810360008301526140a58184614016565b905092915050565b600080604083850312156140c4576140c3613219565b5b60006140d285828601613466565b92505060206140e385828601613466565b9150509250929050565b7f4e487b7100000000000000000000000000000000000000000000000000000000600052602260045260246000fd5b6000600282049050600182168061413457607f821691505b602082108103614147576141466140ed565b5b50919050565b60006060820190506141626000830186613425565b61416f60208301856134bb565b61417c6040830184613425565b949350505050565b7f4f6e6c79206f776e65722063616e2073656c6c207469636b6574000000000000600082015250565b60006141ba601a836132e9565b91506141c582614184565b602082019050919050565b600060208201905081810360008301526141e9816141ad565b9050919050565b7f5469636b657420697320616c7265616479206c697374656420666f722073616c60008201527f6500000000000000000000000000000000000000000000000000000000000000602082015250565b600061424c6021836132e9565b9150614257826141f0565b604082019050919050565b6000602082019050818103600083015261427b8161423f565b9050919050565b7f5072696365206d7573742062652067726561746572207468616e203000000000600082015250565b60006142b8601c836132e9565b91506142c382614282565b602082019050919050565b600060208201905081810360008301526142e7816142ab565b9050919050565b7f416d6f756e74203e203000000000000000000000000000000000000000000000600082015250565b6000614324600a836132e9565b915061432f826142ee565b602082019050919050565b6000602082019050818103600083015261435381614317565b9050919050565b600060608201905061436f6000830186613425565b61437c6020830185613425565b61438960408301846134bb565b949350505050565b6000815190506143a081613ce0565b92915050565b6000602082840312156143bc576143bb613219565b5b60006143ca84828501614391565b91505092915050565b7f5472616e73666572206661696c65640000000000000000000000000000000000600082015250565b6000614409600f836132e9565b9150614414826143d3565b602082019050919050565b60006020820190508181036000830152614438816143fc565b9050919050565b7f4e487b7100000000000000000000000000000000000000000000000000000000600052601160045260246000fd5b600061447982613390565b91507fffffffffffffffffffffffffffffffffffffffffffffffffffffffffffffffff82036144ab576144aa61443f565b5b600182019050919050565b60008190508160005260206000209050919050565b60006020601f8301049050919050565b600082821b905092915050565b6000600883026145187fffffffffffffffffffffffffffffffffffffffffffffffffffffffffffffffff826144db565b61452286836144db565b95508019841693508086168417925050509392505050565b600061455561455061454b84613390565b613bc2565b613390565b9050919050565b6000819050919050565b61456f8361453a565b61458361457b8261455c565b8484546144e8565b825550505050565b600090565b61459861458b565b6145a3818484614566565b505050565b5b818110156145c7576145bc600082614590565b6001810190506145a9565b5050565b601f82111561460c576145dd816144b6565b6145e6846144cb565b810160208510156145f5578190505b614609614601856144cb565b8301826145a8565b50505b505050565b600082821c905092915050565b600061462f60001984600802614611565b1980831691505092915050565b6000614648838361461e565b9150826002028217905092915050565b614661826132de565b67ffffffffffffffff81111561467a576146796135c8565b5b614684825461411c565b61468f8282856145cb565b600060209050601f8311600181146146c257600084156146b0578287015190505b6146ba858261463c565b865550614722565b601f1984166146d0866144b6565b60005b828110156146f8578489015182556001820191506020850194506020810190506146d3565b868310156147155784890151614711601f89168261461e565b8355505b6001600288020188555050505b505050505050565b600061473582613390565b915061474083613390565b92508282019050808211156147585761475761443f565b5b92915050565b600060608201905081810360008301526147788186613335565b905061478760208301856134bb565b6147946040830184613425565b949350505050565b60006147a782613390565b91506147b283613390565b92508282039050818111156147ca576147c961443f565b5b92915050565b7f4e487b7100000000000000000000000000000000000000000000000000000000600052603260045260246000fd5b7f4f6e6c79206d616e616765720000000000000000000000000000000000000000600082015250565b6000614835600c836132e9565b9150614840826147ff565b602082019050919050565b6000602082019050818103600083015261486481614828565b9050919050565b7f496e76616c696420656e642074696d6500000000000000000000000000000000600082015250565b60006148a16010836132e9565b91506148ac8261486b565b602082019050919050565b600060208201905081810360008301526148d081614894565b9050919050565b7f4e65656420322b2063686f696365730000000000000000000000000000000000600082015250565b600061490d600f836132e9565b9150614918826148d7565b602082019050919050565b6000602082019050818103600083015261493c81614900565b9050919050565b7f456d707479206e616d6500000000000000000000000000000000000000000000600082015250565b6000614979600a836132e9565b915061498482614943565b602082019050919050565b600060208201905081810360008301526149a88161496c565b9050919050565b600060408201905081810360008301526149c98185613335565b90506149d860208301846134bb565b9392505050565b7f4c6f747465727920686173206e6f7420656e6465642079657400000000000000600082015250565b6000614a156019836132e9565b9150614a20826149df565b602082019050919050565b60006020820190508181036000830152614a4481614a08565b9050919050565b600081905092915050565b60008190508160005260206000209050919050565b60008154614a788161411c565b614a828186614a4b565b94506001821660008114614a9d5760018114614ab257614ae5565b60ff1983168652811515820286019350614ae5565b614abb85614a56565b60005b83811015614add57815481890152600182019150602081019050614abe565b838801955050505b50505092915050565b6000614afa8284614a6b565b915081905092915050565b6000614b1082613390565b9150614b1b83613390565b9250828202614b2981613390565b91508282048414831517614b4057614b3f61443f565b5b5092915050565b7f4e487b7100000000000000000000000000000000000000000000000000000000600052601260045260246000fd5b6000614b8182613390565b9150614b8c83613390565b925082614b9c57614b9b614b47565b5b828204905092915050565b6000604082019050614bbc6000830185613425565b614bc960208301846134bb565b9392505050565b7f526577617264207472616e73666572206661696c656400000000000000000000600082015250565b6000614c066016836132e9565b9150614c1182614bd0565b602082019050919050565b60006020820190508181036000830152614c3581614bf9565b9050919050565b7f5469636b6574206973206e6f7420666f722073616c6500000000000000000000600082015250565b6000614c726016836132e9565b9150614c7d82614c3c565b602082019050919050565b60006020820190508181036000830152614ca181614c65565b9050919050565b7f43616e6e6f742062757920796f7572206f776e207469636b6574000000000000600082015250565b6000614cde601a836132e9565b9150614ce982614ca8565b602082019050919050565b60006020820190508181036000830152614d0d81614cd1565b9050919050565b7f546f6b656e207472616e73666572206661696c65640000000000000000000000600082015250565b6000614d4a6015836132e9565b9150614d5582614d14565b602082019050919050565b60006020820190508181036000830152614d7981614d3d565b9050919050565b7f4f6e6c79206f776e65722063616e2072656d6f7665207469636b65742066726f60008201527f6d2073616c650000000000000000000000000000000000000000000000000000602082015250565b6000614ddc6026836132e9565b9150614de782614d80565b604082019050919050565b60006020820190508181036000830152614e0b81614dcf565b9050919050565b600081905092915050565b6000614e28826132de565b614e328185614e12565b9350614e428185602086016132fa565b80840191505092915050565b6000614e5a8285614e1d565b9150614e668284614e1d565b91508190509392505050565b600081519050919050565b600082825260208201905092915050565b6000614e9982614e72565b614ea38185614e7d565b9350614eb38185602086016132fa565b614ebc81613324565b840191505092915050565b6000608082019050614edc6000830187613425565b614ee96020830186613425565b614ef660408301856134bb565b8181036060830152614f088184614e8e565b905095945050505050565b600081519050614f228161324f565b92915050565b600060208284031215614f3e57614f3d613219565b5b6000614f4c84828501614f13565b9150509291505056fea26469706673582212205cfea1fd171a65ec8227ef67f66a9cfd28c8b92e48eebf37a5dd4f46326c393164736f6c6343000814003360806040523480156200001157600080fd5b5060405162001638380380620016388339818101604052810190620000379190620001fa565b818181600390816200004a9190620004ca565b5080600490816200005c9190620004ca565b5050505050620005b1565b6000604051905090565b600080fd5b600080fd5b600080fd5b600080fd5b6000601f19601f8301169050919050565b7f4e487b7100000000000000000000000000000000000000000000000000000000600052604160045260246000fd5b620000d08262000085565b810181811067ffffffffffffffff82111715620000f257620000f162000096565b5b80604052505050565b60006200010762000067565b9050620001158282620000c5565b919050565b600067ffffffffffffffff82111562000138576200013762000096565b5b620001438262000085565b9050602081019050919050565b60005b838110156200017057808201518184015260208101905062000153565b60008484015250505050565b6000620001936200018d846200011a565b620000fb565b905082815260208101848484011115620001b257620001b162000080565b5b620001bf84828562000150565b509392505050565b600082601f830112620001df57620001de6200007b565b5b8151620001f18482602086016200017c565b91505092915050565b6000806040838503121562000214576200021362000071565b5b600083015167ffffffffffffffff81111562000235576200023462000076565b5b6200024385828601620001c7565b925050602083015167ffffffffffffffff81111562000267576200026662000076565b5b6200027585828601620001c7565b9150509250929050565b600081519050919050565b7f4e487b7100000000000000000000000000000000000000000000000000000000600052602260045260246000fd5b60006002820490506001821680620002d257607f821691505b602082108103620002e857620002e76200028a565b5b50919050565b60008190508160005260206000209050919050565b60006020601f8301049050919050565b600082821b905092915050565b600060088302620003527fffffffffffffffffffffffffffffffffffffffffffffffffffffffffffffffff8262000313565b6200035e868362000313565b95508019841693508086168417925050509392505050565b6000819050919050565b6000819050919050565b6000620003ab620003a56200039f8462000376565b62000380565b62000376565b9050919050565b6000819050919050565b620003c7836200038a565b620003df620003d682620003b2565b84845462000320565b825550505050565b600090565b620003f6620003e7565b62000403818484620003bc565b505050565b5b818110156200042b576200041f600082620003ec565b60018101905062000409565b5050565b601f8211156200047a576200044481620002ee565b6200044f8462000303565b810160208510156200045f578190505b620004776200046e8562000303565b83018262000408565b50505b505050565b600082821c905092915050565b60006200049f600019846008026200047f565b1980831691505092915050565b6000620004ba83836200048c565b9150826002028217905092915050565b620004d5826200027f565b67ffffffffffffffff811115620004f157620004f062000096565b5b620004fd8254620002b9565b6200050a8282856200042f565b600060209050601f8311600181146200054257600084156200052d578287015190505b620005398582620004ac565b865550620005a9565b601f1984166200055286620002ee565b60005b828110156200057c5784890151825560018201915060208501945060208101905062000555565b868310156200059c578489015162000598601f8916826200048c565b8355505b6001600288020188555050505b505050505050565b61107780620005c16000396000f3fe608060405234801561001057600080fd5b506004361061009e5760003560e01c80633884d635116100665780633884d6351461015d57806370a082311461016757806395d89b4114610197578063a9059cbb146101b5578063dd62ed3e146101e55761009e565b806306fdde03146100a3578063095ea7b3146100c157806318160ddd146100f157806323b872dd1461010f578063313ce5671461013f575b600080fd5b6100ab610215565b6040516100b89190610c39565b60405180910390f35b6100db60048036038101906100d69190610cf4565b6102a7565b6040516100e89190610d4f565b60405180910390f35b6100f96102ca565b6040516101069190610d79565b60405180910390f35b61012960048036038101906101249190610d94565b6102d4565b6040516101369190610d4f565b60405180910390f35b610147610303565b6040516101549190610e03565b60405180910390f35b61016561030c565b005b610181600480360381019061017c9190610e1e565b610405565b60405161018e9190610d79565b60405180910390f35b61019f61044d565b6040516101ac9190610c39565b60405180910390f35b6101cf60048036038101906101ca9190610cf4565b6104df565b6040516101dc9190610d4f565b60405180910390f35b6101ff60048036038101906101fa9190610e4b565b610502565b60405161020c9190610d79565b60405180910390f35b60606003805461022490610eba565b80601f016020809104026020016040519081016040528092919081815260200182805461025090610eba565b801561029d5780601f106102725761010080835404028352916020019161029d565b820191906000526020600020905b81548152906001019060200180831161028057829003601f168201915b5050505050905090565b6000806102b2610589565b90506102bf818585610591565b600191505092915050565b6000600254905090565b6000806102df610589565b90506102ec8582856105a3565b6102f7858585610637565b60019150509392505050565b60006012905090565b60001515600560003373ffffffffffffffffffffffffffffffffffffffff1673ffffffffffffffffffffffffffffffffffffffff16815260200190815260200160002060009054906101000a900460ff1615151461039f576040517f08c379a000000000000000000000000000000000000000000000000000000000815260040161039690610f5d565b60405180910390fd5b6103ab3361271061072b565b6001600560003373ffffffffffffffffffffffffffffffffffffffff1673ffffffffffffffffffffffffffffffffffffffff16815260200190815260200160002060006101000a81548160ff021916908315150217905550565b60008060008373ffffffffffffffffffffffffffffffffffffffff1673ffffffffffffffffffffffffffffffffffffffff168152602001908152602001600020549050919050565b60606004805461045c90610eba565b80601f016020809104026020016040519081016040528092919081815260200182805461048890610eba565b80156104d55780601f106104aa576101008083540402835291602001916104d5565b820191906000526020600020905b8154815290600101906020018083116104b857829003601f168201915b5050505050905090565b6000806104ea610589565b90506104f7818585610637565b600191505092915050565b6000600160008473ffffffffffffffffffffffffffffffffffffffff1673ffffffffffffffffffffffffffffffffffffffff16815260200190815260200160002060008373ffffffffffffffffffffffffffffffffffffffff1673ffffffffffffffffffffffffffffffffffffffff16815260200190815260200160002054905092915050565b600033905090565b61059e83838360016107ad565b505050565b60006105af8484610502565b90507fffffffffffffffffffffffffffffffffffffffffffffffffffffffffffffffff81146106315781811015610621578281836040517ffb8f41b200000000000000000000000000000000000000000000000000000000815260040161061893929190610f8c565b60405180910390fd5b610630848484840360006107ad565b5b50505050565b600073ffffffffffffffffffffffffffffffffffffffff168373ffffffffffffffffffffffffffffffffffffffff16036106a95760006040517f96c6fd1e0000000000000000000000000000000000000000000000000000000081526004016106a09190610fc3565b60405180910390fd5b600073ffffffffffffffffffffffffffffffffffffffff168273ffffffffffffffffffffffffffffffffffffffff160361071b5760006040517fec442f050000000000000000000000000000000000000000000000000000000081526004016107129190610fc3565b60405180910390fd5b610726838383610984565b505050565b600073ffffffffffffffffffffffffffffffffffffffff168273ffffffffffffffffffffffffffffffffffffffff160361079d5760006040517fec442f050000000000000000000000000000000000000000000000000000000081526004016107949190610fc3565b60405180910390fd5b6107a960008383610984565b5050565b600073ffffffffffffffffffffffffffffffffffffffff168473ffffffffffffffffffffffffffffffffffffffff160361081f5760006040517fe602df050000000000000000000000000000000000000000000000000000000081526004016108169190610fc3565b60405180910390fd5b600073ffffffffffffffffffffffffffffffffffffffff168373ffffffffffffffffffffffffffffffffffffffff16036108915760006040517f94280d620000000000000000000000000000000000000000000000000000000081526004016108889190610fc3565b60405180910390fd5b81600160008673ffffffffffffffffffffffffffffffffffffffff1673ffffffffffffffffffffffffffffffffffffffff16815260200190815260200160002060008573ffffffffffffffffffffffffffffffffffffffff1673ffffffffffffffffffffffffffffffffffffffff16815260200190815260200160002081905550801561097e578273ffffffffffffffffffffffffffffffffffffffff168473ffffffffffffffffffffffffffffffffffffffff167f8c5be1e5ebec7d5bd14f71427d1e84f3dd0314c0f7b2291e5b200ac8c7c3b925846040516109759190610d79565b60405180910390a35b50505050565b600073ffffffffffffffffffffffffffffffffffffffff168373ffffffffffffffffffffffffffffffffffffffff16036109d65780600260008282546109ca919061100d565b92505081905550610aa9565b60008060008573ffffffffffffffffffffffffffffffffffffffff1673ffffffffffffffffffffffffffffffffffffffff16815260200190815260200160002054905081811015610a62578381836040517fe450d38c000000000000000000000000000000000000000000000000000000008152600401610a5993929190610f8c565b60405180910390fd5b8181036000808673ffffffffffffffffffffffffffffffffffffffff1673ffffffffffffffffffffffffffffffffffffffff16815260200190815260200160002081905550505b600073ffffffffffffffffffffffffffffffffffffffff168273ffffffffffffffffffffffffffffffffffffffff1603610af25780600260008282540392505081905550610b3f565b806000808473ffffffffffffffffffffffffffffffffffffffff1673ffffffffffffffffffffffffffffffffffffffff168152602001908152602001600020600082825401925050819055505b8173ffffffffffffffffffffffffffffffffffffffff168373ffffffffffffffffffffffffffffffffffffffff167fddf252ad1be2c89b69c2b068fc378daa952ba7f163c4a11628f55a4df523b3ef83604051610b9c9190610d79565b60405180910390a3505050565b600081519050919050565b600082825260208201905092915050565b60005b83811015610be3578082015181840152602081019050610bc8565b60008484015250505050565b6000601f19601f8301169050919050565b6000610c0b82610ba9565b610c158185610bb4565b9350610c25818560208601610bc5565b610c2e81610bef565b840191505092915050565b60006020820190508181036000830152610c538184610c00565b905092915050565b600080fd5b600073ffffffffffffffffffffffffffffffffffffffff82169050919050565b6000610c8b82610c60565b9050919050565b610c9b81610c80565b8114610ca657600080fd5b50565b600081359050610cb881610c92565b92915050565b6000819050919050565b610cd181610cbe565b8114610cdc57600080fd5b50565b600081359050610cee81610cc8565b92915050565b60008060408385031215610d0b57610d0a610c5b565b5b6000610d1985828601610ca9565b9250506020610d2a85828601610cdf565b9150509250929050565b60008115159050919050565b610d4981610d34565b82525050565b6000602082019050610d646000830184610d40565b92915050565b610d7381610cbe565b82525050565b6000602082019050610d8e6000830184610d6a565b92915050565b600080600060608486031215610dad57610dac610c5b565b5b6000610dbb86828701610ca9565b9350506020610dcc86828701610ca9565b9250506040610ddd86828701610cdf565b9150509250925092565b600060ff82169050919050565b610dfd81610de7565b82525050565b6000602082019050610e186000830184610df4565b92915050565b600060208284031215610e3457610e33610c5b565b5b6000610e4284828501610ca9565b91505092915050565b60008060408385031215610e6257610e61610c5b565b5b6000610e7085828601610ca9565b9250506020610e8185828601610ca9565b9150509250929050565b7f4e487b7100000000000000000000000000000000000000000000000000000000600052602260045260246000fd5b60006002820490506001821680610ed257607f821691505b602082108103610ee557610ee4610e8b565b5b50919050565b7f5468697320757365722068617320636c61696d65642061697264726f7020616c60008201527f7265616479000000000000000000000000000000000000000000000000000000602082015250565b6000610f47602583610bb4565b9150610f5282610eeb565b604082019050919050565b60006020820190508181036000830152610f7681610f3a565b9050919050565b610f8681610c80565b82525050565b6000606082019050610fa16000830186610f7d565b610fae6020830185610d6a565b610fbb6040830184610d6a565b949350505050565b6000602082019050610fd86000830184610f7d565b92915050565b7f4e487b7100000000000000000000000000000000000000000000000000000000600052601160045260246000fd5b600061101882610cbe565b915061102383610cbe565b925082820190508082111561103b5761103a610fde565b5b9291505056fea26469706673582212207e62f39f6ab29ac7c68a75114af337709780b211f4edaf6126a03a94f9d12a7964736f6c63430008140033",
  "linkReferences": {},
  "deployedLinkReferences": {}
}